:100000000C942A000C9454020C9480020C94AC02C0
:100010000C9447000C9447000C9447000C94470044
:100020000C9447000C9447000C9404030C94D802E1
:100030000C9447000C9447000C9447000C94470024
:100040000C94BA000C9447000C9447000C944700A1
:100050000C94470011241FBECFE5D8E0DEBFCDBF12
:1000600010E0A0E6B0E0E4E6F6E002C005900D92F4
:10007000A036B107D9F720E0A0E6B0E001C01D929C
:10008000AD36B207E1F70E9449000C9430030C949E
:100090000000CF93DF93CDB7DEB728970FB6F89463
:1000A000DEBF0FBECDBF61E082E00E942A0201E008
:1000B0000B831C8286E08A8313E01983CE010196AC
:1000C0000E94F8010F83188687E08E831D83CE017E
:1000D00005960E94F801909160008DEC989F812D0B
:1000E000112486958695869580936A00880F282F1F
:1000F000220F220F820F981B9093690011E01C833E
:100100001886CE0101960E94F801CE0105960E9444
:10011000F80160916A0082E00E9414022FE788E3F0
:1001200091E0215080409040E1F700C000001C8227
:100130001887CE0101960E94F801CE0105960E9413
:10014000F8016091690082E00E9414022FE788E3C1
:1001500091E0215080409040E1F700C00000809184
:1001600060008F5F80936000843608F4B4CF1092F3
:100170006000B1CF1F920F920FB60F9211248F9390
:100180009F9384B195B190936C0080936B009F9185
:100190008F910F900FBE0F901F901895FC01892B27
:1001A00009F445C080818130A9F028F0823009F13E
:1001B000833071F13EC02BB381E090E0018002C03A
:1001C000880F991F0A94E2F7822B8BBB81E083830F
:1001D00080E0089528B381E090E0018002C0880F9C
:1001E000991F0A94E2F7822B88BB81E0838380E029
:1001F000089525B381E090E0018002C0880F991F27
:100200000A94E2F7822B85BB81E0838380E0089526
:1002100022B381E090E0018002C0880F991F0A9408
:10022000E2F7822B82BB81E0838380E0089581E046
:10023000089581E00895FC01892B09F445C080816F
:100240008130A9F028F0823009F1833071F13EC08D
:100250002BB381E090E0018002C0880F991F0A94BF
:10026000E2F7809582238BBB138280E0089528B348
:1002700081E090E0018002C0880F991F0A94E2F7A4
:100280008095822388BB138280E0089525B381E0A6
:1002900090E0018002C0880F991F0A94E2F78095D0
:1002A000822385BB138280E0089522B381E090E031
:1002B000018002C0880F991F0A94E2F7809582237B
:1002C00082BB138280E0089581E0089581E0089563
:1002D000FC01892B09F484C08281811141C0808195
:1002E0008130A1F028F08230F9F0833059F17AC0E2
:1002F0002AB381E090E0018002C0880F991F0A9420
:10030000E2F7809582238ABB80E0089527B381E0DD
:1003100090E0018002C0880F991F0A94E2F780954F
:10032000822387BB80E0089524B381E090E00180C0
:1003300002C0880F991F0A94E2F78095822384BB3C
:1003400080E0089521B381E090E0018002C0880F31
:10035000991F0A94E2F78095822381BB80E008957B
:10036000813009F041C08081813099F028F08230DD
:10037000E9F0833041F13AC02AB381E090E0018096
:1003800002C0880F991F0A94E2F7822B8ABB80E093
:10039000089527B381E090E0018002C0880F991F83
:1003A0000A94E2F7822B87BB80E0089524B381E0B2
:1003B00090E0018002C0880F991F0A94E2F7822B17
:1003C00084BB80E0089521B381E090E0018002C009
:1003D000880F991F0A94E2F7822B81BB80E0089571
:1003E00081E0089581E0089580E0089581E0089516
:1003F000CF93DF93EC010E946801209779F08B8105
:10040000811105C0CE010E941B0180E00AC081302D
:1004100039F4CE010E94CE0080E003C081E001C02B
:1004200080E0DF91CF910895813049F028F082304B
:1004300049F0833051F00CC06BBB80E0089568BB7D
:1004400080E0089565BB80E0089562BB80E0089578
:1004500081E00895813071F028F0823099F0833086
:10046000C9F020C0613011F48FEF01C080E08ABB79
:1004700080E00895613011F48FEF01C080E087BB08
:1004800080E00895613011F48FEF01C080E084BBFB
:1004900080E00895613011F48FEF01C080E081BBEE
:1004A00080E0089581E008951F920F920FB60F9299
:1004B00011242F933F934F935F936F937F938F9369
:1004C0009F93AF93BF93EF93FF93E0916500F091FB
:1004D0006600309709F009958BB780648BBFFF9158
:1004E000EF91BF91AF919F918F917F916F915F91AC
:1004F0004F913F912F910F900FBE0F901F90189525
:100500001F920F920FB60F9211242F933F934F9388
:100510005F936F937F938F939F93AF93BF93EF936B
:10052000FF93E0916300F0916400309709F0099522
:100530008BB780688BBFFF91EF91BF91AF919F9177
:100540008F917F916F915F914F913F912F910F907C
:100550000FBE0F901F9018951F920F920FB60F921B
:1005600011242F933F934F935F936F937F938F93B8
:100570009F93AF93BF93EF93FF93E0916100F0914E
:100580006200309709F009958BB780628BBFFF91AD
:10059000EF91BF91AF919F918F917F916F915F91FB
:1005A0004F913F912F910F900FBE0F901F90189574
:1005B0001F920F920FB60F9211242F933F934F93D8
:1005C0005F936F937F938F939F93AF93BF93EF93BB
:1005D000FF93E0916700F09168000680F781E02DBD
:1005E000309709F00995FF91EF91BF91AF919F91DD
:1005F0008F917F916F915F914F913F912F910F90CC
:100600000FBE0F901F9018951F920F920FB60F926A
:1006100011242F933F934F935F936F937F938F9307
:100620009F93AF93BF93EF93FF93E0916700F09197
:1006300068000084F185E02D309709F00995FF915D
:10064000EF91BF91AF919F918F917F916F915F914A
:100650004F913F912F910F900FBE0F901F901895C3
:04066000F894FFCF3C
:00000001FF
